:1000000080315E290000CD37F43772106537E33256
:100010006E3269326F00C734F237A030203661107B
:10002000E432F23263346100CD37F4377210653751
:10003000E3326E3269326F00C734F237A0302036B7
:100040006110693DF13AE932723261008C266F3AF3
:100050006F39A030F030E730E43700002030850001
:100060000C3084000008031943280130F800F70120
:10007000F70B3828F80B37284A30F700F70B3E28E3
:100080004128800B35280800320EF039F7000F3078
:100090000D0577048D0000000D144E280D1008008A
:1000A0000D08F7000D0E0F39F800080021000D10A3
:1000B0008D100D1120008D100F3021000D05F0382E
:1000C0008D0020000D1500000D1400005020780850
:1000D000B2000D1000000D14000050207808B1008F
:1000E0000D100F3021000D058D002000320EF7009D
:1000F000F030F70577083104F8007808B100B11B3B
:100100005C282F1C8D102F188D1400000D1100007D
:100110000D10300EB1000F30B1053108B20044208F
:1001200030080F39B100B200442008002830A80080
:100130000C30A9000130AA000630AB000D108D1064
:100140000D110F3021000D058D000D108D100D11BA
:100150000F302000AC002E200130A7002708033C00
:10016000031CBA280330B20044200530AC002E2016
:10017000A70AAE280230B20044200530AC002E2081
:10018000A7012708033C031CD42808302707840054
:10019000203085000318850A0008AC00AF012C0848
:1001A000B0005620A70AC128803168292C0BD92815
:1001B000DC284030AD00DD28AD0101302B02AD0759
:1001C0002D088038AE00AF012E08B0005620080080
:1001D0002A08073A0319F6280B3A0319FB28063AAE
:1001E00003190329023A031909290E290130AB002A
:1001F000AC00D6201329AF010130B00056200230E8
:10020000AC002E2013290130AB000230AC00D62008
:100210001329AF011030B000562013290130AF0070
:100220002A08B000562008000B088B1323009517EE
:10023000151400000000891B8B1713087F39031960
:100240005C292000A700230011082000A80023003B
:1002500012082000A9002708AA00E8202808230087
:10026000910020002908230092000B088B1395179A
:10027000151400000000891B8B17130D140D7F3916
:1002800003195C292000A700230011082000A80002
:10029000230012082000A9002708AA00E820280847
:1002A000230091002000290823009200910A0319DD
:1002B000920A2000142923002000080023008C014A
:1002C0008D01220092019101940193012000962852
:1002D000F0306500103066000130A1000230A2004D
:1002E0000430A3000830A40021000C1620000C1ECE
:1002F000AB290130AB00AC00D620033023009100C5
:1003000000309200200014210130AB000230AC001C
:10031000D6200B30230091000030920020001421E1
:10032000A5012508033C031CAA29013025078400E8
:10033000203085000318850A0008A70021008C01E1
:100340002000270822008C000A302000AC002E205C
:10035000A50A9129F22921008D1520008D1DE4297F
:100360000130AB00AC00D6201430230091000030E7
:100370009200200014210130AB000230AC00D620E6
:100380001C30230091000030920020001421043022
:10039000A6002608003C0318E32901302602013E8E
:1003A0008400203085000318850A0008A70021007A
:1003B0008C012000270822008C000A302000AC00AD
:1003C0002E20A603C929F2290130AB00AC00D620AB
:1003D0002630230091000030920020001421C83004
:0803E000AC002E20742963001B
:020000040001F9
:04000E00C139FF1ED7
:00000001FF
;PIC16F1827
;CRC=557B  CREATED="30-mar.-21 13:29"
